{
  "contractName": "EventContract",
  "abi": [
    {
      "constant": true,
      "inputs": [],
      "name": "testNumber",
      "outputs": [
        {
          "name": "",
          "type": "uint256"
        }
      ],
      "payable": false,
      "stateMutability": "view",
      "type": "function"
    },
    {
      "anonymous": false,
      "inputs": [
        {
          "indexed": false,
          "name": "hello",
          "type": "address"
        },
        {
          "indexed": false,
          "name": "number",
          "type": "uint256"
        }
      ],
      "name": "TestEvent",
      "type": "event"
    },
    {
      "constant": false,
      "inputs": [
        {
          "name": "newNumber",
          "type": "uint256"
        }
      ],
      "name": "emitEvent",
      "outputs": [],
      "payable": false,
      "stateMutability": "nonpayable",
      "type": "function"
    }
  ],
  "bytecode": "0x608060405234801561001057600080fd5b506101fb806100206000396000f30060806040526004361061004c576000357c0100000000000000000000000000000000000000000000000000000000900463ffffffff1680630d1972f3146100515780634d43bec91461007c575b600080fd5b34801561005d57600080fd5b506100666100a5565b6040516100739190610172565b60405180910390f35b34801561008857600080fd5b506100a3600480360361009e9190810190610102565b6100ab565b005b60005481565b806000819055507f2a1343a7ef16865394327596242ebb1d13cafbd9dbb29027e89cbc0212cfa73733826040516100e3929190610149565b60405180910390a150565b60006100fa82356101b7565b905092915050565b60006020828403121561011457600080fd5b6000610122848285016100ee565b91505092915050565b6101348161018d565b82525050565b610143816101ad565b82525050565b600060408201905061015e600083018561012b565b61016b602083018461013a565b9392505050565b6000602082019050610187600083018461013a565b92915050565b600073ffffffffffffffffffffffffffffffffffffffff82169050919050565b6000819050919050565b60008190509190505600a265627a7a723058207b2d60cbdd9b1c1484ae61652224988780757c70b0e45190df8ac5de132bd1796c6578706572696d656e74616cf50037",
  "source": "pragma solidity 0.4.24;\npragma experimental ABIEncoderV2;\npragma experimental \"v0.5.0\";\n\n\ncontract EventContract {\n\n    uint256 public testNumber;\n\n    event TestEvent(\n        address hello,\n        uint256 number\n    );\n\n    function emitEvent(uint256 newNumber) public {\n        testNumber = newNumber;\n\n        emit TestEvent(\n            msg.sender,\n            newNumber\n        );\n    }\n}",
  "sourcePath": "/home/julian/ethers-event-listening/contracts/EventContract.sol",
  "compiler": {
    "name": "solc",
    "version": "0.4.24+commit.e67f0147.Emscripten.clang"
  },
  "schemaVersion": "2.0.1",
  "updatedAt": "2018-09-19T15:20:43.184Z"
}